{
  "contractName": "Voting",
  "abi": [
    {
      "anonymous": false,
      "inputs": [
        {
          "indexed": true,
          "internalType": "address",
          "name": "previousOwner",
          "type": "address"
        },
        {
          "indexed": true,
          "internalType": "address",
          "name": "newOwner",
          "type": "address"
        }
      ],
      "name": "OwnershipTransferred",
      "type": "event"
    },
    {
      "anonymous": false,
      "inputs": [
        {
          "indexed": false,
          "internalType": "uint256",
          "name": "proposalId",
          "type": "uint256"
        }
      ],
      "name": "ProposalRegistered",
      "type": "event"
    },
    {
      "anonymous": false,
      "inputs": [
        {
          "indexed": false,
          "internalType": "address",
          "name": "voter",
          "type": "address"
        },
        {
          "indexed": false,
          "internalType": "uint256",
          "name": "proposalId",
          "type": "uint256"
        }
      ],
      "name": "Voted",
      "type": "event"
    },
    {
      "anonymous": false,
      "inputs": [
        {
          "indexed": false,
          "internalType": "address",
          "name": "voterAddress",
          "type": "address"
        }
      ],
      "name": "VoterRegistered",
      "type": "event"
    },
    {
      "anonymous": false,
      "inputs": [
        {
          "indexed": false,
          "internalType": "enum Voting.WorkflowStatus",
          "name": "previousStatus",
          "type": "uint8"
        },
        {
          "indexed": false,
          "internalType": "enum Voting.WorkflowStatus",
          "name": "newStatus",
          "type": "uint8"
        }
      ],
      "name": "WorkflowStatusChange",
      "type": "event"
    },
    {
      "inputs": [],
      "name": "owner",
      "outputs": [
        {
          "internalType": "address",
          "name": "",
          "type": "address"
        }
      ],
      "stateMutability": "view",
      "type": "function",
      "constant": true
    },
    {
      "inputs": [],
      "name": "renounceOwnership",
      "outputs": [],
      "stateMutability": "nonpayable",
      "type": "function"
    },
    {
      "inputs": [
        {
          "internalType": "address",
          "name": "newOwner",
          "type": "address"
        }
      ],
      "name": "transferOwnership",
      "outputs": [],
      "stateMutability": "nonpayable",
      "type": "function"
    },
    {
      "inputs": [],
      "name": "winningProposalId",
      "outputs": [
        {
          "internalType": "uint256",
          "name": "",
          "type": "uint256"
        }
      ],
      "stateMutability": "view",
      "type": "function",
      "constant": true
    },
    {
      "inputs": [],
      "name": "workflowStatus",
      "outputs": [
        {
          "internalType": "enum Voting.WorkflowStatus",
          "name": "",
          "type": "uint8"
        }
      ],
      "stateMutability": "view",
      "type": "function",
      "constant": true
    },
    {
      "inputs": [
        {
          "internalType": "address",
          "name": "_addr",
          "type": "address"
        }
      ],
      "name": "getVoter",
      "outputs": [
        {
          "components": [
            {
              "internalType": "bool",
              "name": "isRegistered",
              "type": "bool"
            },
            {
              "internalType": "bool",
              "name": "hasVoted",
              "type": "bool"
            },
            {
              "internalType": "uint256",
              "name": "votedProposalId",
              "type": "uint256"
            }
          ],
          "internalType": "struct Voting.Voter",
          "name": "",
          "type": "tuple"
        }
      ],
      "stateMutability": "view",
      "type": "function",
      "constant": true
    },
    {
      "inputs": [
        {
          "internalType": "uint256",
          "name": "_id",
          "type": "uint256"
        }
      ],
      "name": "getOneProposal",
      "outputs": [
        {
          "components": [
            {
              "internalType": "string",
              "name": "description",
              "type": "string"
            },
            {
              "internalType": "uint256",
              "name": "voteCount",
              "type": "uint256"
            }
          ],
          "internalType": "struct Voting.Proposal",
          "name": "",
          "type": "tuple"
        }
      ],
      "stateMutability": "view",
      "type": "function",
      "constant": true
    },
    {
      "inputs": [
        {
          "internalType": "address",
          "name": "_addr",
          "type": "address"
        }
      ],
      "name": "addVoter",
      "outputs": [],
      "stateMutability": "nonpayable",
      "type": "function"
    },
    {
      "inputs": [
        {
          "internalType": "string",
          "name": "_desc",
          "type": "string"
        }
      ],
      "name": "addProposal",
      "outputs": [],
      "stateMutability": "nonpayable",
      "type": "function"
    },
    {
      "inputs": [
        {
          "internalType": "uint256",
          "name": "_id",
          "type": "uint256"
        }
      ],
      "name": "setVote",
      "outputs": [],
      "stateMutability": "nonpayable",
      "type": "function"
    },
    {
      "inputs": [],
      "name": "startProposalsRegistering",
      "outputs": [],
      "stateMutability": "nonpayable",
      "type": "function"
    },
    {
      "inputs": [],
      "name": "endProposalsRegistering",
      "outputs": [],
      "stateMutability": "nonpayable",
      "type": "function"
    },
    {
      "inputs": [],
      "name": "startVotingSession",
      "outputs": [],
      "stateMutability": "nonpayable",
      "type": "function"
    },
    {
      "inputs": [],
      "name": "endVotingSession",
      "outputs": [],
      "stateMutability": "nonpayable",
      "type": "function"
    },
    {
      "inputs": [],
      "name": "tallyVotes",
      "outputs": [],
      "stateMutability": "nonpayable",
      "type": "function"
    }
  ],
  "bytecode": "0x608060405234801561001057600080fd5b5061002d61002261003260201b60201c565b61003a60201b60201c565b6100fe565b600033905090565b60008060009054906101000a900473ffffffffffffffffffffffffffffffffffffffff169050816000806101000a81548173ffffffffffffffffffffffffffffffffffffffff021916908373ffffffffffffffffffffffffffffffffffffffff1602179055508173ffffffffffffffffffffffffffffffffffffffff168173ffffffffffffffffffffffffffffffffffffffff167f8be0079c531659141344cd1fd0a4f28419497f9722a3daafe3b4186f6b6457e060405160405180910390a35050565b612367806200010e6000396000f3fe608060405234801561001057600080fd5b50600436106100f55760003560e01c8063a7bfab1611610097578063d4f50f9811610066578063d4f50f98146101ee578063ee74c6781461021e578063f2fde38b14610228578063f4ab9adf14610244576100f5565b8063a7bfab16146101b2578063c64963c5146101bc578063c7038a4e146101da578063c88af42f146101e4576100f5565b8063715018a6116100d3578063715018a61461013c5780638da5cb5b14610146578063a1edffa214610164578063a2788cce14610182576100f5565b8063230796ae146100fa5780632fdae3c514610116578063378a217814610132575b600080fd5b610114600480360381019061010f919061159b565b610260565b005b610130600480360381019061012b919061162d565b61055b565b005b61013a610831565b005b610144610a87565b005b61014e610a9b565b60405161015b91906116bb565b60405180910390f35b61016c610ac4565b604051610179919061174d565b60405180910390f35b61019c6004803603810190610197919061159b565b610ad7565b6040516101a9919061184d565b60405180910390f35b6101ba610c3e565b005b6101c4610d24565b6040516101d1919061187e565b60405180910390f35b6101e2610d2a565b005b6101ec610e10565b005b610208600480360381019061020391906118c5565b610ef5565b604051610215919061194f565b60405180910390f35b61022661101d565b005b610242600480360381019061023d91906118c5565b611103565b005b61025e600480360381019061025991906118c5565b611186565b005b600460003373ffffffffffffffffffffffffffffffffffffffff1673ffffffffffffffffffffffffffffffffffffffff16815260200190815260200160002060000160009054906101000a900460ff166102ef576040517f08c379a00000000000000000000000000000000000000000000000000000000081526004016102e6906119c7565b60405180910390fd5b60036005811115610303576103026116d6565b5b600260009054906101000a900460ff166005811115610325576103246116d6565b5b14610365576040517f08c379a000000000000000000000000000000000000000000000000000000000815260040161035c90611a59565b60405180910390fd5b60011515600460003373ffffffffffffffffffffffffffffffffffffffff1673ffffffffffffffffffffffffffffffffffffffff16815260200190815260200160002060000160019054906101000a900460ff161515036103fb576040517f08c379a00000000000000000000000000000000000000000000000000000000081526004016103f290611ac5565b60405180910390fd5b6003805490508110610442576040517f08c379a000000000000000000000000000000000000000000000000000000000815260040161043990611b31565b60405180910390fd5b80600460003373ffffffffffffffffffffffffffffffffffffffff1673ffffffffffffffffffffffffffffffffffffffff168152602001908152602001600020600101819055506001600460003373ffffffffffffffffffffffffffffffffffffffff1673ffffffffffffffffffffffffffffffffffffffff16815260200190815260200160002060000160016101000a81548160ff021916908315150217905550600381815481106104f8576104f7611b51565b5b9060005260206000209060020201600101600081548092919061051a90611baf565b91905055507f4d99b957a2bc29a30ebd96a7be8e68fe50a3c701db28a91436490b7d53870ca43382604051610550929190611bf7565b60405180910390a150565b600460003373ffffffffffffffffffffffffffffffffffffffff1673ffffffffffffffffffffffffffffffffffffffff16815260200190815260200160002060000160009054906101000a900460ff166105ea576040517f08c379a00000000000000000000000000000000000000000000000000000000081526004016105e1906119c7565b60405180910390fd5b6101f460038054905010610633576040517f08c379a000000000000000000000000000000000000000000000000000000000815260040161062a90611c6c565b60405180910390fd5b60016005811115610647576106466116d6565b5b600260009054906101000a900460ff166005811115610669576106686116d6565b5b146106a9576040517f08c379a00000000000000000000000000000000000000000000000000000000081526004016106a090611cd8565b60405180910390fd5b6040516020016106b890611d1e565b6040516020818303038152906040528051906020012082826040516020016106e1929190611d7a565b6040516020818303038152906040528051906020012003610737576040517f08c379a000000000000000000000000000000000000000000000000000000000815260040161072e90611e10565b60405180910390fd5b6003604051806040016040528084848080601f016020809104026020016040519081016040528093929190818152602001838380828437600081840152601f19601f8201169050808301925050505050505081526020016000815250908060018154018082558091505060019003906000526020600020906002020160009091909190915060008201518160000190805190602001906107d8929190611479565b506020820151816001015550507f92e393e9b54e2f801d3ea4beb0c5e71a21cc34a5d34b77d0fb8a3aa1650dc18f60016003805490506108189190611e30565b604051610825919061187e565b60405180910390a15050565b61083961132f565b6004600581111561084d5761084c6116d6565b5b600260009054906101000a900460ff16600581111561086f5761086e6116d6565b5b146108af576040517f08c379a00000000000000000000000000000000000000000000000000000000081526004016108a690611ed6565b60405180910390fd5b6000806003805480602002602001604051908101604052809291908181526020016000905b828210156109a2578382906000526020600020906002020160405180604001604052908160008201805461090790611f25565b80601f016020809104026020016040519081016040528092919081815260200182805461093390611f25565b80156109805780601f1061095557610100808354040283529160200191610980565b820191906000526020600020905b81548152906001019060200180831161096357829003601f168201915b50505050508152602001600182015481525050815260200190600101906108d4565b50505050905060008151905060005b81811015610a14578284815181106109cc576109cb611b51565b5b6020026020010151602001518382815181106109eb576109ea611b51565b5b6020026020010151602001511115610a01578093505b8080610a0c90611baf565b9150506109b1565b50826001819055506005600260006101000a81548160ff02191690836005811115610a4257610a416116d6565b5b02179055507f0a97a4ee45751e2abf3e4fc8946939630b11b371ea8ae39ccdc3056e98f5cc3f60046005604051610a7a929190611f56565b60405180910390a1505050565b610a8f61132f565b610a9960006113ad565b565b60008060009054906101000a900473ffffffffffffffffffffffffffffffffffffffff16905090565b600260009054906101000a900460ff1681565b610adf6114ff565b600460003373ffffffffffffffffffffffffffffffffffffffff1673ffffffffffffffffffffffffffffffffffffffff16815260200190815260200160002060000160009054906101000a900460ff16610b6e576040517f08c379a0000000000000000000000000000000000000000000000000000000008152600401610b65906119c7565b60405180910390fd5b60038281548110610b8257610b81611b51565b5b9060005260206000209060020201604051806040016040529081600082018054610bab90611f25565b80601f0160208091040260200160405190810160405280929190818152602001828054610bd790611f25565b8015610c245780601f10610bf957610100808354040283529160200191610c24565b820191906000526020600020905b815481529060010190602001808311610c0757829003601f168201915b505050505081526020016001820154815250509050919050565b610c4661132f565b60036005811115610c5a57610c596116d6565b5b600260009054906101000a900460ff166005811115610c7c57610c7b6116d6565b5b14610cbc576040517f08c379a0000000000000000000000000000000000000000000000000000000008152600401610cb390611a59565b60405180910390fd5b6004600260006101000a81548160ff02191690836005811115610ce257610ce16116d6565b5b02179055507f0a97a4ee45751e2abf3e4fc8946939630b11b371ea8ae39ccdc3056e98f5cc3f60036004604051610d1a929190611f56565b60405180910390a1565b60015481565b610d3261132f565b60006005811115610d4657610d456116d6565b5b600260009054906101000a900460ff166005811115610d6857610d676116d6565b5b14610da8576040517f08c379a0000000000000000000000000000000000000000000000000000000008152600401610d9f90611ff1565b60405180910390fd5b6001600260006101000a81548160ff02191690836005811115610dce57610dcd6116d6565b5b02179055507f0a97a4ee45751e2abf3e4fc8946939630b11b371ea8ae39ccdc3056e98f5cc3f60006001604051610e06929190611f56565b60405180910390a1565b610e1861132f565b60016005811115610e2c57610e2b6116d6565b5b600260009054906101000a900460ff166005811115610e4e57610e4d6116d6565b5b14610e8e576040517f08c379a0000000000000000000000000000000000000000000000000000000008152600401610e8590612083565b60405180910390fd5b60028060006101000a81548160ff02191690836005811115610eb357610eb26116d6565b5b02179055507f0a97a4ee45751e2abf3e4fc8946939630b11b371ea8ae39ccdc3056e98f5cc3f60016002604051610eeb929190611f56565b60405180910390a1565b610efd611519565b600460003373ffffffffffffffffffffffffffffffffffffffff1673ffffffffffffffffffffffffffffffffffffffff16815260200190815260200160002060000160009054906101000a900460ff16610f8c576040517f08c379a0000000000000000000000000000000000000000000000000000000008152600401610f83906119c7565b60405180910390fd5b600460008373ffffffffffffffffffffffffffffffffffffffff1673ffffffffffffffffffffffffffffffffffffffff1681526020019081526020016000206040518060600160405290816000820160009054906101000a900460ff161515151581526020016000820160019054906101000a900460ff161515151581526020016001820154815250509050919050565b61102561132f565b60026005811115611039576110386116d6565b5b600260009054906101000a900460ff16600581111561105b5761105a6116d6565b5b1461109b576040517f08c379a000000000000000000000000000000000000000000000000000000000815260040161109290612115565b60405180910390fd5b6003600260006101000a81548160ff021916908360058111156110c1576110c06116d6565b5b02179055507f0a97a4ee45751e2abf3e4fc8946939630b11b371ea8ae39ccdc3056e98f5cc3f600260036040516110f9929190611f56565b60405180910390a1565b61110b61132f565b600073ffffffffffffffffffffffffffffffffffffffff168173ffffffffffffffffffffffffffffffffffffffff160361117a576040517f08c379a0000000000000000000000000000000000000000000000000000000008152600401611171906121a7565b60405180910390fd5b611183816113ad565b50565b61118e61132f565b600060058111156111a2576111a16116d6565b5b600260009054906101000a900460ff1660058111156111c4576111c36116d6565b5b14611204576040517f08c379a00000000000000000000000000000000000000000000000000000000081526004016111fb90612239565b60405180910390fd5b60011515600460008373ffffffffffffffffffffffffffffffffffffffff1673ffffffffffffffffffffffffffffffffffffffff16815260200190815260200160002060000160009054906101000a900460ff1615150361129a576040517f08c379a0000000000000000000000000000000000000000000000000000000008152600401611291906122a5565b60405180910390fd5b6001600460008373ffffffffffffffffffffffffffffffffffffffff1673ffffffffffffffffffffffffffffffffffffffff16815260200190815260200160002060000160006101000a81548160ff0219169083151502179055507fb6be2187d059cc2a55fe29e0e503b566e1e0f8c8780096e185429350acffd3dd8160405161132491906116bb565b60405180910390a150565b611337611471565b73ffffffffffffffffffffffffffffffffffffffff16611355610a9b565b73ffffffffffffffffffffffffffffffffffffffff16146113ab576040517f08c379a00000000000000000000000000000000000000000000000000000000081526004016113a290612311565b60405180910390fd5b565b60008060009054906101000a900473ffffffffffffffffffffffffffffffffffffffff169050816000806101000a81548173ffffffffffffffffffffffffffffffffffffffff021916908373ffffffffffffffffffffffffffffffffffffffff1602179055508173ffffffffffffffffffffffffffffffffffffffff168173ffffffffffffffffffffffffffffffffffffffff167f8be0079c531659141344cd1fd0a4f28419497f9722a3daafe3b4186f6b6457e060405160405180910390a35050565b600033905090565b82805461148590611f25565b90600052602060002090601f0160209004810192826114a757600085556114ee565b82601f106114c057805160ff19168380011785556114ee565b828001600101855582156114ee579182015b828111156114ed5782518255916020019190600101906114d2565b5b5090506114fb919061153e565b5090565b604051806040016040528060608152602001600081525090565b6040518060600160405280600015158152602001600015158152602001600081525090565b5b8082111561155757600081600090555060010161153f565b5090565b600080fd5b600080fd5b6000819050919050565b61157881611565565b811461158357600080fd5b50565b6000813590506115958161156f565b92915050565b6000602082840312156115b1576115b061155b565b5b60006115bf84828501611586565b91505092915050565b600080fd5b600080fd5b600080fd5b60008083601f8401126115ed576115ec6115c8565b5b8235905067ffffffffffffffff81111561160a576116096115cd565b5b602083019150836001820283011115611626576116256115d2565b5b9250929050565b600080602083850312156116445761164361155b565b5b600083013567ffffffffffffffff81111561166257611661611560565b5b61166e858286016115d7565b92509250509250929050565b600073ffffffffffffffffffffffffffffffffffffffff82169050919050565b60006116a58261167a565b9050919050565b6116b58161169a565b82525050565b60006020820190506116d060008301846116ac565b92915050565b7f4e487b7100000000000000000000000000000000000000000000000000000000600052602160045260246000fd5b60068110611716576117156116d6565b5b50565b600081905061172782611705565b919050565b600061173782611719565b9050919050565b6117478161172c565b82525050565b6000602082019050611762600083018461173e565b92915050565b600081519050919050565b600082825260208201905092915050565b60005b838110156117a2578082015181840152602081019050611787565b838111156117b1576000848401525b50505050565b6000601f19601f8301169050919050565b60006117d382611768565b6117dd8185611773565b93506117ed818560208601611784565b6117f6816117b7565b840191505092915050565b61180a81611565565b82525050565b6000604083016000830151848203600086015261182d82826117c8565b91505060208301516118426020860182611801565b508091505092915050565b600060208201905081810360008301526118678184611810565b905092915050565b61187881611565565b82525050565b6000602082019050611893600083018461186f565b92915050565b6118a28161169a565b81146118ad57600080fd5b50565b6000813590506118bf81611899565b92915050565b6000602082840312156118db576118da61155b565b5b60006118e9848285016118b0565b91505092915050565b60008115159050919050565b611907816118f2565b82525050565b60608201600082015161192360008501826118fe565b50602082015161193660208501826118fe565b5060408201516119496040850182611801565b50505050565b6000606082019050611964600083018461190d565b92915050565b600082825260208201905092915050565b7f596f75277265206e6f74206120766f7465720000000000000000000000000000600082015250565b60006119b160128361196a565b91506119bc8261197b565b602082019050919050565b600060208201905081810360008301526119e0816119a4565b9050919050565b7f566f74696e672073657373696f6e20686176656e74207374617274656420796560008201527f7400000000000000000000000000000000000000000000000000000000000000602082015250565b6000611a4360218361196a565b9150611a4e826119e7565b604082019050919050565b60006020820190508181036000830152611a7281611a36565b9050919050565b7f596f75206861766520616c726561647920766f74656400000000000000000000600082015250565b6000611aaf60168361196a565b9150611aba82611a79565b602082019050919050565b60006020820190508181036000830152611ade81611aa2565b9050919050565b7f50726f706f73616c206e6f7420666f756e640000000000000000000000000000600082015250565b6000611b1b60128361196a565b9150611b2682611ae5565b602082019050919050565b60006020820190508181036000830152611b4a81611b0e565b9050919050565b7f4e487b7100000000000000000000000000000000000000000000000000000000600052603260045260246000fd5b7f4e487b7100000000000000000000000000000000000000000000000000000000600052601160045260246000fd5b6000611bba82611565565b91507fffffffffffffffffffffffffffffffffffffffffffffffffffffffffffffffff8203611bec57611beb611b80565b5b600182019050919050565b6000604082019050611c0c60008301856116ac565b611c19602083018461186f565b9392505050565b7f546f6f206d7563682070726f706f73616c7320726567697374657265642e0000600082015250565b6000611c56601e8361196a565b9150611c6182611c20565b602082019050919050565b60006020820190508181036000830152611c8581611c49565b9050919050565b7f50726f706f73616c7320617265206e6f7420616c6c6f77656420796574000000600082015250565b6000611cc2601d8361196a565b9150611ccd82611c8c565b602082019050919050565b60006020820190508181036000830152611cf181611cb5565b9050919050565b50565b6000611d0860008361196a565b9150611d1382611cf8565b600082019050919050565b60006020820190508181036000830152611d3781611cfb565b9050919050565b82818337600083830152505050565b6000611d59838561196a565b9350611d66838584611d3e565b611d6f836117b7565b840190509392505050565b60006020820190508181036000830152611d95818486611d4d565b90509392505050565b7f566f7573206e6520706f7576657a20706173206e65207269656e2070726f706f60008201527f7365720000000000000000000000000000000000000000000000000000000000602082015250565b6000611dfa60238361196a565b9150611e0582611d9e565b604082019050919050565b60006020820190508181036000830152611e2981611ded565b9050919050565b6000611e3b82611565565b9150611e4683611565565b925082821015611e5957611e58611b80565b5b828203905092915050565b7f43757272656e7420737461747573206973206e6f7420766f74696e672073657360008201527f73696f6e20656e64656400000000000000000000000000000000000000000000602082015250565b6000611ec0602a8361196a565b9150611ecb82611e64565b604082019050919050565b60006020820190508181036000830152611eef81611eb3565b9050919050565b7f4e487b7100000000000000000000000000000000000000000000000000000000600052602260045260246000fd5b60006002820490506001821680611f3d57607f821691505b602082108103611f5057611f4f611ef6565b5b50919050565b6000604082019050611f6b600083018561173e565b611f78602083018461173e565b9392505050565b7f5265676973746572696e672070726f706f73616c732063616e7420626520737460008201527f6172746564206e6f770000000000000000000000000000000000000000000000602082015250565b6000611fdb60298361196a565b9150611fe682611f7f565b604082019050919050565b6000602082019050818103600083015261200a81611fce565b9050919050565b7f5265676973746572696e672070726f706f73616c7320686176656e742073746160008201527f7274656420796574000000000000000000000000000000000000000000000000602082015250565b600061206d60288361196a565b915061207882612011565b604082019050919050565b6000602082019050818103600083015261209c81612060565b9050919050565b7f5265676973746572696e672070726f706f73616c73207068617365206973206e60008201527f6f742066696e6973686564000000000000000000000000000000000000000000602082015250565b60006120ff602b8361196a565b915061210a826120a3565b604082019050919050565b6000602082019050818103600083015261212e816120f2565b9050919050565b7f4f776e61626c653a206e6577206f776e657220697320746865207a65726f206160008201527f6464726573730000000000000000000000000000000000000000000000000000602082015250565b600061219160268361196a565b915061219c82612135565b604082019050919050565b600060208201905081810360008301526121c081612184565b9050919050565b7f566f7465727320726567697374726174696f6e206973206e6f74206f70656e2060008201527f7965740000000000000000000000000000000000000000000000000000000000602082015250565b600061222360238361196a565b915061222e826121c7565b604082019050919050565b6000602082019050818103600083015261225281612216565b9050919050565b7f416c726561647920726567697374657265640000000000000000000000000000600082015250565b600061228f60128361196a565b915061229a82612259565b602082019050919050565b600060208201905081810360008301526122be81612282565b9050919050565b7f4f776e61626c653a2063616c6c6572206973206e6f7420746865206f776e6572600082015250565b60006122fb60208361196a565b9150612306826122c5565b602082019050919050565b6000602082019050818103600083015261232a816122ee565b905091905056fea264697066735822122036dac99da5c58909fed129a2b0f9246866865200c1268151a67ab0703fa3756f64736f6c634300080e0033",
  "immutableReferences": {},
  "source": "// SPDX-License-Identifier: MIT\npragma solidity 0.8.14;\n\nimport \"@openzeppelin/contracts/access/Ownable.sol\";\n\n/**\n * @title Voting\n * @author Nicolas Vairaa\n * @notice Implements voting process for a small organization with one Admin (launcher of the contract).\n */\ncontract Voting is Ownable {\n    struct Voter {\n        bool isRegistered; // If true, that person is registered\n        bool hasVoted; // if true, that person has voted\n        uint256 votedProposalId; // Index of the voted proposal for this voter\n    }\n\n    struct Proposal {\n        string description; // Short text\n        uint256 voteCount; // Number of accumulated votes\n    }\n\n    enum WorkflowStatus {\n        RegisteringVoters, // Admin can register voter with their address\n        ProposalsRegistrationStarted, // Voters can register their proposals\n        ProposalsRegistrationEnded, // Voters are no longer able to register their proposals\n        VotingSessionStarted, // Voters can vote for their favorite proposal (1 vote / voter)\n        VotingSessionEnded, // Voters are no longer able to vote, and votes are being tallied\n        VotesTallied // All votes are tallied, results should be visible\n    }\n\n    uint256 public winningProposalId;\n    WorkflowStatus public workflowStatus;\n    Proposal[] proposals;\n    mapping(address => Voter) voters;\n\n    event VoterRegistered(address voterAddress);\n    event WorkflowStatusChange(\n        WorkflowStatus previousStatus,\n        WorkflowStatus newStatus\n    );\n    event ProposalRegistered(uint256 proposalId);\n    event Voted(address voter, uint256 proposalId);\n\n    /**\n     * @notice Returns if the address is a voter\n     */\n    modifier onlyVoters() {\n        require(voters[msg.sender].isRegistered, \"You're not a voter\");\n        _;\n    }\n\n    // ::::::::::::: GETTERS ::::::::::::: //\n    /**\n     * @dev Returns a voter by its address\n     * @param _addr The voter's address\n     */\n    function getVoter(address _addr)\n        external\n        view\n        onlyVoters\n        returns (Voter memory)\n    {\n        return voters[_addr];\n    }\n\n    /**\n     * @notice Get a proposals by its id\n     * @param _id The proposal's id\n     */\n    function getOneProposal(uint256 _id)\n        external\n        view\n        onlyVoters\n        returns (Proposal memory)\n    {\n        return proposals[_id];\n    }\n\n    // ::::::::::::: REGISTRATION ::::::::::::: //\n    /**\n     * @notice Add a voter with its address\n     * @param _addr The address to register\n     * @dev Emit the VoterRegistered event\n     */\n    function addVoter(address _addr) external onlyOwner {\n        require(\n            workflowStatus == WorkflowStatus.RegisteringVoters,\n            \"Voters registration is not open yet\"\n        );\n        require(voters[_addr].isRegistered != true, \"Already registered\");\n\n        voters[_addr].isRegistered = true;\n        emit VoterRegistered(_addr);\n    }\n\n    // ::::::::::::: PROPOSAL ::::::::::::: //\n    /**\n     * @notice Add a proposal with its description\n     * @param _desc The proposal's description\n     * @dev Emit the ProposalRegistered event\n     */\n    function addProposal(string calldata _desc) external onlyVoters {\n        require(proposals.length < 500, \"Too much proposals registered.\");\n        require(\n            workflowStatus == WorkflowStatus.ProposalsRegistrationStarted,\n            \"Proposals are not allowed yet\"\n        );\n        require(\n            keccak256(abi.encode(_desc)) != keccak256(abi.encode(\"\")),\n            \"Vous ne pouvez pas ne rien proposer\"\n        );\n\n        proposals.push(Proposal(_desc, 0));\n        emit ProposalRegistered(proposals.length - 1);\n    }\n\n    // ::::::::::::: VOTE ::::::::::::: //\n    /**\n     * @notice Increment by 1 the vote count for a proposal\n     * @param _id The proposal's id\n     * @dev Emit the Voted event\n     */\n    function setVote(uint256 _id) external onlyVoters {\n        require(\n            workflowStatus == WorkflowStatus.VotingSessionStarted,\n            \"Voting session havent started yet\"\n        );\n        require(voters[msg.sender].hasVoted != true, \"You have already voted\");\n        require(_id < proposals.length, \"Proposal not found\");\n\n        voters[msg.sender].votedProposalId = _id;\n        voters[msg.sender].hasVoted = true;\n        proposals[_id].voteCount++;\n\n        emit Voted(msg.sender, _id);\n    }\n\n    // ::::::::::::: STATE ::::::::::::: //\n    /**\n     * @notice Set the workflow in order to allow voters to register proposals\n     * @dev Emit the WorkflowStatusChange event\n     */\n    function startProposalsRegistering() external onlyOwner {\n        require(\n            workflowStatus == WorkflowStatus.RegisteringVoters,\n            \"Registering proposals cant be started now\"\n        );\n        workflowStatus = WorkflowStatus.ProposalsRegistrationStarted;\n        emit WorkflowStatusChange(\n            WorkflowStatus.RegisteringVoters,\n            WorkflowStatus.ProposalsRegistrationStarted\n        );\n    }\n\n    /**\n     * @notice Set the workflow in order to not allow voters to register proposals anymore\n     * @dev Emit the WorkflowStatusChange event\n     */\n    function endProposalsRegistering() external onlyOwner {\n        require(\n            workflowStatus == WorkflowStatus.ProposalsRegistrationStarted,\n            \"Registering proposals havent started yet\"\n        );\n        workflowStatus = WorkflowStatus.ProposalsRegistrationEnded;\n        emit WorkflowStatusChange(\n            WorkflowStatus.ProposalsRegistrationStarted,\n            WorkflowStatus.ProposalsRegistrationEnded\n        );\n    }\n\n    /**\n     * @notice Set the workflow in order to allow voters to vote for a proposal\n     * @dev Emit the WorkflowStatusChange event\n     */\n    function startVotingSession() external onlyOwner {\n        require(\n            workflowStatus == WorkflowStatus.ProposalsRegistrationEnded,\n            \"Registering proposals phase is not finished\"\n        );\n        workflowStatus = WorkflowStatus.VotingSessionStarted;\n        emit WorkflowStatusChange(\n            WorkflowStatus.ProposalsRegistrationEnded,\n            WorkflowStatus.VotingSessionStarted\n        );\n    }\n\n    /**\n     * @notice Set the workflow in order to not allow voters to vote for a proposal anymore\n     * @dev Emit the WorkflowStatusChange event\n     */\n    function endVotingSession() external onlyOwner {\n        require(\n            workflowStatus == WorkflowStatus.VotingSessionStarted,\n            \"Voting session havent started yet\"\n        );\n        workflowStatus = WorkflowStatus.VotingSessionEnded;\n        emit WorkflowStatusChange(\n            WorkflowStatus.VotingSessionStarted,\n            WorkflowStatus.VotingSessionEnded\n        );\n    }\n\n    /**\n     * @notice Tally all votes, set the winning proposal\n     * @dev Emit the WorkflowStatusChange event\n     */\n    function tallyVotes() external onlyOwner {\n        require(\n            workflowStatus == WorkflowStatus.VotingSessionEnded,\n            \"Current status is not voting session ended\"\n        );\n        uint256 _winningProposalId;\n        Proposal[] memory _proposals = proposals;\n        uint256 _proposalsLength = _proposals.length; //  caching length instead of re-compute for each loop\n        for (\n            uint256 proposalIndex = 0;\n            proposalIndex < _proposalsLength;\n            proposalIndex++\n        ) {\n            if (\n                _proposals[proposalIndex].voteCount >\n                _proposals[_winningProposalId].voteCount\n            ) {\n                _winningProposalId = proposalIndex;\n            }\n        }\n        winningProposalId = _winningProposalId;\n\n        workflowStatus = WorkflowStatus.VotesTallied;\n        emit WorkflowStatusChange(\n            WorkflowStatus.VotingSessionEnded,\n            WorkflowStatus.VotesTallied\n        );\n    }\n}\n",
  "sourcePath": "/home/jackonthemoon/dev/Developpeur-Ethereum-Template/6. Dapp/projet/contracts/Voting.sol",
  "compiler": {
    "name": "solc",
    "version": "0.8.14+commit.80d49f37.Emscripten.clang"
  },
  "schemaVersion": "3.4.4",
  "updatedAt": "2022-07-13T22:57:30.873Z",
  "networkType": "ethereum",
  "devdoc": {
    "author": "Nicolas Vairaa",
    "kind": "dev",
    "methods": {
      "addProposal(string)": {
        "details": "Emit the ProposalRegistered event",
        "params": {
          "_desc": "The proposal's description"
        }
      },
      "addVoter(address)": {
        "details": "Emit the VoterRegistered event",
        "params": {
          "_addr": "The address to register"
        }
      },
      "endProposalsRegistering()": {
        "details": "Emit the WorkflowStatusChange event"
      },
      "endVotingSession()": {
        "details": "Emit the WorkflowStatusChange event"
      },
      "getOneProposal(uint256)": {
        "params": {
          "_id": "The proposal's id"
        }
      },
      "getVoter(address)": {
        "details": "Returns a voter by its address",
        "params": {
          "_addr": "The voter's address"
        }
      },
      "owner()": {
        "details": "Returns the address of the current owner."
      },
      "renounceOwnership()": {
        "details": "Leaves the contract without owner. It will not be possible to call `onlyOwner` functions anymore. Can only be called by the current owner. NOTE: Renouncing ownership will leave the contract without an owner, thereby removing any functionality that is only available to the owner."
      },
      "setVote(uint256)": {
        "details": "Emit the Voted event",
        "params": {
          "_id": "The proposal's id"
        }
      },
      "startProposalsRegistering()": {
        "details": "Emit the WorkflowStatusChange event"
      },
      "startVotingSession()": {
        "details": "Emit the WorkflowStatusChange event"
      },
      "tallyVotes()": {
        "details": "Emit the WorkflowStatusChange event"
      },
      "transferOwnership(address)": {
        "details": "Transfers ownership of the contract to a new account (`newOwner`). Can only be called by the current owner."
      }
    },
    "title": "Voting",
    "version": 1
  },
  "userdoc": {
    "kind": "user",
    "methods": {
      "addProposal(string)": {
        "notice": "Add a proposal with its description"
      },
      "addVoter(address)": {
        "notice": "Add a voter with its address"
      },
      "endProposalsRegistering()": {
        "notice": "Set the workflow in order to not allow voters to register proposals anymore"
      },
      "endVotingSession()": {
        "notice": "Set the workflow in order to not allow voters to vote for a proposal anymore"
      },
      "getOneProposal(uint256)": {
        "notice": "Get a proposals by its id"
      },
      "setVote(uint256)": {
        "notice": "Increment by 1 the vote count for a proposal"
      },
      "startProposalsRegistering()": {
        "notice": "Set the workflow in order to allow voters to register proposals"
      },
      "startVotingSession()": {
        "notice": "Set the workflow in order to allow voters to vote for a proposal"
      },
      "tallyVotes()": {
        "notice": "Tally all votes, set the winning proposal"
      }
    },
    "notice": "Implements voting process for a small organization with one Admin (launcher of the contract).",
    "version": 1
  }
}